:020000020000FC
:0200000020C01E
:020004003AC000
:04000C0045C044C0E7
:0200060048C0F0
:10001400FFCF22E038E34EEA4A95F1F73A95E1F74B
:100024002A95D1F70895F5DFF4DF0895FCDFFBDFAF
:10003400FADFF9DFF8DF0895F9DFF8DF08950FE953
:100044000DBFBB9ABC9AC09AC29A06B30570002E23
:1000540005E005BB00E20BBFC398C4981127789450
:10006400D7CFC498E0DFC3981E7F0895C39ADBDF1F
:10007400C49A1160089501D018953324002703BF52
:1000840002BF02E00FBD03E003BF06E906BF04E0C0
:1000940009BF0895339479F4002703BF06B30570AC
:1000A400001649F0202F0025022E0F9300FD04D0E6
:1000B4000F9102FD09D0189500FC089510FD02C0AF
:1000C400D5DF01C0CEDF089510FF02C002FCC9DFF6
:0200D40008958D
:00000001FF
